:100000000A128A116B2B00308A000408840A8207C6
:100010000034013400340A34003464340034E834E9
:10002000033410342734523465346334653469340E
:10003000763465342034663472346F346D34203451
:100040005334503449343A342034253464340D3434
:100050000A340034533465346E34643420347434D8
:100060006F3420345334503449343A3420342534F6
:1000700064340D340A34003445346E34643420342E
:100080006F3466342034533450344934203464346B
:1000900065346D346F340D340A34003450344934CF
:1000A0004334203453345034493420344434653498
:0A00B0006D346F340D340A3400344F
:1006CC0083120313B40194120800B40183010A12BB
:1006DC008A11432E00308316031314180130762B25
:1006EC00080083120313B401B40A941601307E2B54
:1006FC000800F3007308F2007208F0008312031371
:10070C0033080A128A118D230A128A110800F1008B
:10071C007108013A0319932B942B962BA02BA02B29
:10072C0070088312031399009B2B0C1E9E2B9F2B7E
:10073C009B2BA02B0800F0007008013A0319A72B83
:10074C00A82BAB2B0030B62BB62B831603139801BA
:10075C008312031398018316031399017008B62BA7
:10076C000800F0007008013A0319BD2BBE2BC12BF9
:10077C000030CF2BCF2B83160313181283120313C5
:10078C009817831603139816831203131816013047
:10079C00CF2B0800F2007008831203139300D72BA1
:1007AC00D72B72080A128A1170230A128A11003A86
:1007BC000319E12BE22BD72BE32B83120313130822
:1007CC00F1007108F3007308EB2B0800F2007208BB
:1007DC00013A0319F22BF32B0B2C182C182C0B2C85
:1007EC00700884000A128A1103200A128A118312DB
:1007FC00031399000130F1007108F007052C0C1E51
:10080C00082C092C052C0B2C0B2C700884000A12BC
:10081C008A1103200A128A110038031D162C172C7A
:10082C00F62B182C080083120313A0002008013AA1
:10083C000319212C222C252C0030452C452C8316F9
:10084C00031394018312031394010030F30000305E
:10085C00F2000030F1001130F0000030F7000030F1
:10086C00F6000030F5000330F40020080A128A115B
:10087C0090250A128A11831203132008452C0800B4
:10088C007908780403194B2C4C2C812CFD01FD0AA2
:10089C005B2C01300310F80DF90DFF3E031D502C9D
:1008AC000130FC007C08FD075B2CF91F5E2C5F2CD3
:1008BC004F2C612C612C79087B02031D672C780866
:1008CC007A02031C6A2C6B2C722C7808FA027908B9
:1008DC00031CFB03FB02722C01300310F90CF80C07
:1008EC00FF3E031D732C0130FD02031D7E2C7F2C5B
:1008FC00612C812C812C7B08F901F9077A08F8010D
:10090C00F807882C0800F501F6017108700403192A
:10091C00902C912CCE2CF701F70AA02C013003104F
:10092C00F00DF10DFF3E031D952C0130F400740801
:10093C00F707A02CF11FA32CA42C942CA62CA62CCE
:10094C0001300310F50DF60DFF3E031DA72C7108A9
:10095C007302031DB32C70087202031CB62CB72C47
:10096C00BF2C7008F2027108031CF303F302751418
:10097C00BF2C01300310F10CF00CFF3E031DC02CFA
:10098C000130F702031DCB2CCC2CA62CCE2CCE2C5C
:10099C007608F101F1077508F001F007D52C080075
:1009AC0083120313AC002C08013A0319DE2CDF2C44
:1009BC00E12C222D222D8316031318151812ED2C61
:1009CC00831203131817831603131817F42C8312AE
:1009DC0003131813831603131813F42C8312031325
:1009EC002408A8002508A9002608AA002708AB009F
:1009FC0002300310A80DA90DAA0DAB0DFF3E031D6F
:100A0C00FF2C2B08F3002A08F2002908F100280813
:100A1C00F0000030F7000F30F6004230F5004030A7
:100A2C00F4000A128A1123250A128A117008FF3E5B
:100A3C00831603139900222D08000030FC000030AF
:100A4C00FB000030FA000030F900730872047104E6
:100A5C0070040319322D332D862DFD01FD0A442D12
:100A6C000130F8000310F00DF10DF20DF30DF80B41
:100A7C00382D0130F8007808FD07442DF31F472D61
:100A8C00482D362D4A2D4A2D0130F8000310F90D52
:100A9C00FA0DFB0DFC0DF80B4C2D73087702031DA2
:100AAC00612D72087602031D612D71087502031DFC
:100ABC00612D70087402031C642D652D752D700852
:100ACC00F4027108031C710FF5027208031C720FFB
:100ADC00F6027308031C730FF7027914752D01309D
:100AEC000310F30CF20CF10CF00CFF3E031D762DF1
:100AFC000130FD02031D832D842D4A2D862D862D5C
:100B0C007C08F3007B08F2007A08F1007908F00009
:100B1C008F2D0800FC007C08013A0319962D972DA7
:100B2C00992D422E422E74080F39F8007808FD00DA
:100B3C00D72D7D08033A031DA42DA52DAA2DF03029
:100B4C00831203139405192E7D08053A031DAF2D4E
:100B5C00B02DB72D831203131408F039013894000B
:100B6C00192E7D08073A031DBC2DBD2DC42D8312F3
:100B7C0003131408F03902389400192E831203134E
:100B8C001408F03902389400192E192E192E192E2A
:100B9C00831203131408F03904389400192E422ED2
:100BAC00192E0F307005F80000307105F900003077
:100BBC007205FA0000307305FB007B08003A03193C
:100BCC00F52D422E7908003A0319ED2D422E7808A6
:100BDC00013A03199F2D033A0319CE2D422E7A08A0
:100BEC00003A0319E82D422E192E83120313141206
:100BFC00831603131413422E831203131412831639
:100C0C0003131417422E83120313141683160313A3
:100C1C001413422E83120313141683160313141782
:100C2C00422E422E422EF0307005F8000030710535
:100C3C00F90000307205FA0000307305FB007B08E8
:100C4C00003A03193D2E422E7908003A03192F2E33
:100C5C00422E7808103A0319FB2D303A0319022E54
:100C6C00103A0319092E703A0319102E422E7A08E5
:100C7C00003A03192A2E422E080083160317880106
:100C8C008316031387110716871201300A128A1173
:100C9C0019240A128A1183120313AE002E08B20013
:100CAC0001300A128A11A1230A128A11831203132A
:100CBC00AE002E08B3000030A3000030A2001130AB
:100CCC00A1001030A0000030A7000030A600253095
:100CDC00A5008030A40033080A128A11D6240A1207
:100CEC008A110030F3000030F2000030F1001130B6
:100CFC00F0000030F7000030F6000030F50007304F
:100D0C00F4008312031332080A128A1190250A1276
:100D1C008A118312031333080A128A11B7230A1299
:100D2C008A110038031D9B2E9C2E9E2E9C2E9E2ECF
:100D3C00463083120313AE002E08F00033080A125B
:100D4C008A11EC230A128A118312031332080A1235
:100D5C008A1177230A128A11003A0319B62EB72E7C
:100D6C000D2F83120313B1013108FF3A031DBF2E5F
:100D7C00C02EC22EFA2EFA2E3108AE00AF012E086C
:100D8C00A0002F08A10022300A128A1111270A1282
:100D9C008A11831203133108AE002E08F0003208BA
:100DAC000A128A11D0230A128A1183120313AF007C
:100DBC002F08B0003008AE00AF012E08A0002F089D
:100DCC00A1000B300A128A1111270A128A11013064
:100DDC0083120313AE002E08B1073108FF3A031D2E
:100DEC00F82EF92EC22EFA2E32080A128A11662318
:100DFC000A128A11343083120313AE002E08F0004D
:100E0C0033080A128A11EC230A128A110D2F0D2FA6
:100E1C000A128A11002883120313A7002030A200A3
:100E2C002208A500E92F2D08253A03191E2F1F2F84
:100E3C00262F2D080A128A117F230A128A11E92FF4
:100E4C00A6012D2FFF2F422F422FE92F422F0130C9
:100E5C00A707FF30270784000A128A1103200A1201
:100E6C008A11AD00003A0319FF2F643A0319422F7F
:100E7C000D3A0319422FE92F25088400831300082B
:100E8C00A900840A0008AA000230A2002208A507C3
:100E9C00AA1F512F522F5C2F0330A2002208A60448
:100EAC00A909AA09A90A0319AA0A5C2FAD01AD0A5E
:100EBC002D08053A031D632F642F662F8E2F8E2F5E
:100ECC002D08A2002207013E84000A128A11032079
:100EDC000A128A11A3000A128A1103200A128A111B
:100EEC00A40024082A02031D7D2F230829020318BD
:100EFC00802F812F832F8E2F8E2F0130A20022085E
:100F0C00AD072D08053A031D8C2F8D2F662F8E2FC4
:100F1C00260803390319932F942F9B2F2D300A1277
:100F2C008A117F230A128A119B2F831203132D0817
:100F3C00A2002208A800DB2F0A30F8000030F900CC
:100F4C002808A2002207013E84000A128A110320FD
:100F5C000A128A11F0000A128A1103200A128A114D
:100F6C00F1002A08F301F3072908F201F2070A122B
:100F7C008A1189240A128A117108FB01FB07700877
:100F8C00FA01FA070A128A1146240A128A11780801
:100F9C00303E83120313A3002308AD002D080A1260
:100FAC008A117F230A128A11DB2FFF30831203135D
:100FBC00A2002208A8072808FF3A031DE62FE72FF6
:100FCC00A22FE92FE92F013083120313A707FF305B
:100FDC00270784000A128A1103200A128A11A20020
:100FEC002208AD00AD08031DFC2FFD2F192FFF2F7C
:040FFC00FF2F0800BB
:04400E00D1E0FFFFFF
:00000001FF
